{
  "contractName": "ZombieOwnership",
  "abi": [
    {
      "constant": false,
      "inputs": [
        {
          "name": "_zombieId",
          "type": "uint256"
        }
      ],
      "name": "levelUp",
      "outputs": [],
      "payable": true,
      "stateMutability": "payable",
      "type": "function"
    },
    {
      "constant": false,
      "inputs": [
        {
          "name": "_zombieId",
          "type": "uint256"
        },
        {
          "name": "_kittyId",
          "type": "uint256"
        }
      ],
      "name": "feedOnKitty",
      "outputs": [],
      "payable": false,
      "stateMutability": "nonpayable",
      "type": "function"
    },
    {
      "constant": true,
      "inputs": [
        {
          "name": "",
          "type": "uint256"
        }
      ],
      "name": "zombies",
      "outputs": [
        {
          "name": "name",
          "type": "string"
        },
        {
          "name": "dna",
          "type": "uint256"
        },
        {
          "name": "level",
          "type": "uint32"
        },
        {
          "name": "readyTime",
          "type": "uint32"
        },
        {
          "name": "winCount",
          "type": "uint16"
        },
        {
          "name": "lossCount",
          "type": "uint16"
        }
      ],
      "payable": false,
      "stateMutability": "view",
      "type": "function"
    },
    {
      "constant": false,
      "inputs": [],
      "name": "withdraw",
      "outputs": [],
      "payable": false,
      "stateMutability": "nonpayable",
      "type": "function"
    },
    {
      "constant": true,
      "inputs": [
        {
          "name": "",
          "type": "uint256"
        }
      ],
      "name": "zombiesForSale",
      "outputs": [
        {
          "name": "price",
          "type": "uint256"
        },
        {
          "name": "seller",
          "type": "address"
        }
      ],
      "payable": false,
      "stateMutability": "view",
      "type": "function"
    },
    {
      "constant": true,
      "inputs": [
        {
          "name": "_owner",
          "type": "address"
        }
      ],
      "name": "getZombiesByOwner",
      "outputs": [
        {
          "name": "",
          "type": "uint256[]"
        }
      ],
      "payable": false,
      "stateMutability": "view",
      "type": "function"
    },
    {
      "constant": true,
      "inputs": [
        {
          "name": "",
          "type": "uint256"
        }
      ],
      "name": "zombieToOwner",
      "outputs": [
        {
          "name": "",
          "type": "address"
        }
      ],
      "payable": false,
      "stateMutability": "view",
      "type": "function"
    },
    {
      "constant": true,
      "inputs": [
        {
          "name": "",
          "type": "uint256"
        }
      ],
      "name": "isZombieForSale",
      "outputs": [
        {
          "name": "",
          "type": "bool"
        }
      ],
      "payable": false,
      "stateMutability": "view",
      "type": "function"
    },
    {
      "constant": false,
      "inputs": [
        {
          "name": "_address",
          "type": "address"
        }
      ],
      "name": "setKittyContractAddress",
      "outputs": [],
      "payable": false,
      "stateMutability": "nonpayable",
      "type": "function"
    },
    {
      "constant": false,
      "inputs": [
        {
          "name": "_zombieId",
          "type": "uint256"
        },
        {
          "name": "_newDna",
          "type": "uint256"
        }
      ],
      "name": "changeDna",
      "outputs": [],
      "payable": false,
      "stateMutability": "nonpayable",
      "type": "function"
    },
    {
      "constant": false,
      "inputs": [],
      "name": "renounceOwnership",
      "outputs": [],
      "payable": false,
      "stateMutability": "nonpayable",
      "type": "function"
    },
    {
      "constant": false,
      "inputs": [
        {
          "name": "_name",
          "type": "string"
        }
      ],
      "name": "createRandomZombie",
      "outputs": [],
      "payable": false,
      "stateMutability": "nonpayable",
      "type": "function"
    },
    {
      "constant": true,
      "inputs": [
        {
          "name": "",
          "type": "uint256"
        }
      ],
      "name": "zombieSalePrice",
      "outputs": [
        {
          "name": "",
          "type": "uint256"
        }
      ],
      "payable": false,
      "stateMutability": "view",
      "type": "function"
    },
    {
      "constant": true,
      "inputs": [],
      "name": "owner",
      "outputs": [
        {
          "name": "",
          "type": "address"
        }
      ],
      "payable": false,
      "stateMutability": "view",
      "type": "function"
    },
    {
      "constant": true,
      "inputs": [],
      "name": "isOwner",
      "outputs": [
        {
          "name": "",
          "type": "bool"
        }
      ],
      "payable": false,
      "stateMutability": "view",
      "type": "function"
    },
    {
      "constant": false,
      "inputs": [
        {
          "name": "zombieId",
          "type": "uint256"
        }
      ],
      "name": "deleteZombie",
      "outputs": [],
      "payable": false,
      "stateMutability": "nonpayable",
      "type": "function"
    },
    {
      "constant": false,
      "inputs": [
        {
          "name": "_name",
          "type": "string"
        }
      ],
      "name": "createMultipleZombies",
      "outputs": [],
      "payable": false,
      "stateMutability": "nonpayable",
      "type": "function"
    },
    {
      "constant": false,
      "inputs": [
        {
          "name": "_zombieId",
          "type": "uint256"
        },
        {
          "name": "_newName",
          "type": "string"
        }
      ],
      "name": "changeName",
      "outputs": [],
      "payable": false,
      "stateMutability": "nonpayable",
      "type": "function"
    },
    {
      "constant": false,
      "inputs": [
        {
          "name": "_fee",
          "type": "uint256"
        }
      ],
      "name": "setLevelUpFee",
      "outputs": [],
      "payable": false,
      "stateMutability": "nonpayable",
      "type": "function"
    },
    {
      "constant": true,
      "inputs": [
        {
          "name": "",
          "type": "uint256"
        }
      ],
      "name": "zombieSaleList",
      "outputs": [
        {
          "name": "",
          "type": "uint256"
        }
      ],
      "payable": false,
      "stateMutability": "view",
      "type": "function"
    },
    {
      "constant": false,
      "inputs": [
        {
          "name": "_zombieId",
          "type": "uint256"
        },
        {
          "name": "_targetId",
          "type": "uint256"
        }
      ],
      "name": "attack",
      "outputs": [],
      "payable": false,
      "stateMutability": "nonpayable",
      "type": "function"
    },
    {
      "constant": false,
      "inputs": [
        {
          "name": "newOwner",
          "type": "address"
        }
      ],
      "name": "transferOwnership",
      "outputs": [],
      "payable": false,
      "stateMutability": "nonpayable",
      "type": "function"
    },
    {
      "anonymous": false,
      "inputs": [
        {
          "indexed": true,
          "name": "owner",
          "type": "address"
        },
        {
          "indexed": true,
          "name": "tokenId",
          "type": "uint256"
        },
        {
          "indexed": false,
          "name": "price",
          "type": "uint256"
        }
      ],
      "name": "SaleListed",
      "type": "event"
    },
    {
      "anonymous": false,
      "inputs": [
        {
          "indexed": true,
          "name": "buyer",
          "type": "address"
        },
        {
          "indexed": true,
          "name": "seller",
          "type": "address"
        },
        {
          "indexed": true,
          "name": "tokenId",
          "type": "uint256"
        },
        {
          "indexed": false,
          "name": "price",
          "type": "uint256"
        }
      ],
      "name": "SaleCompleted",
      "type": "event"
    },
    {
      "anonymous": false,
      "inputs": [
        {
          "indexed": true,
          "name": "owner",
          "type": "address"
        },
        {
          "indexed": true,
          "name": "tokenId",
          "type": "uint256"
        }
      ],
      "name": "SaleCancelled",
      "type": "event"
    },
    {
      "anonymous": false,
      "inputs": [
        {
          "indexed": true,
          "name": "zombieId",
          "type": "uint256"
        },
        {
          "indexed": true,
          "name": "seller",
          "type": "address"
        }
      ],
      "name": "ZombieSaleCancelled",
      "type": "event"
    },
    {
      "anonymous": false,
      "inputs": [
        {
          "indexed": false,
          "name": "message",
          "type": "string"
        }
      ],
      "name": "DebugLog",
      "type": "event"
    },
    {
      "anonymous": false,
      "inputs": [
        {
          "indexed": true,
          "name": "from",
          "type": "address"
        },
        {
          "indexed": true,
          "name": "to",
          "type": "address"
        },
        {
          "indexed": false,
          "name": "amount",
          "type": "uint256"
        },
        {
          "indexed": false,
          "name": "success",
          "type": "bool"
        }
      ],
      "name": "DebugTransfer",
      "type": "event"
    },
    {
      "anonymous": false,
      "inputs": [
        {
          "indexed": true,
          "name": "zombieId",
          "type": "uint256"
        },
        {
          "indexed": false,
          "name": "price",
          "type": "uint256"
        },
        {
          "indexed": true,
          "name": "buyer",
          "type": "address"
        }
      ],
      "name": "ZombieSold",
      "type": "event"
    },
    {
      "anonymous": false,
      "inputs": [
        {
          "indexed": true,
          "name": "_from",
          "type": "address"
        },
        {
          "indexed": true,
          "name": "_to",
          "type": "address"
        },
        {
          "indexed": true,
          "name": "_tokenId",
          "type": "uint256"
        }
      ],
      "name": "Transfer",
      "type": "event"
    },
    {
      "anonymous": false,
      "inputs": [
        {
          "indexed": true,
          "name": "_owner",
          "type": "address"
        },
        {
          "indexed": true,
          "name": "_approved",
          "type": "address"
        },
        {
          "indexed": true,
          "name": "_tokenId",
          "type": "uint256"
        }
      ],
      "name": "Approval",
      "type": "event"
    },
    {
      "anonymous": false,
      "inputs": [
        {
          "indexed": false,
          "name": "zombieId",
          "type": "uint256"
        },
        {
          "indexed": false,
          "name": "name",
          "type": "string"
        },
        {
          "indexed": false,
          "name": "dna",
          "type": "uint256"
        }
      ],
      "name": "NewZombie",
      "type": "event"
    },
    {
      "anonymous": false,
      "inputs": [
        {
          "indexed": true,
          "name": "previousOwner",
          "type": "address"
        },
        {
          "indexed": true,
          "name": "newOwner",
          "type": "address"
        }
      ],
      "name": "OwnershipTransferred",
      "type": "event"
    },
    {
      "constant": true,
      "inputs": [
        {
          "name": "_owner",
          "type": "address"
        }
      ],
      "name": "balanceOf",
      "outputs": [
        {
          "name": "",
          "type": "uint256"
        }
      ],
      "payable": false,
      "stateMutability": "view",
      "type": "function"
    },
    {
      "constant": true,
      "inputs": [
        {
          "name": "_tokenId",
          "type": "uint256"
        }
      ],
      "name": "ownerOf",
      "outputs": [
        {
          "name": "",
          "type": "address"
        }
      ],
      "payable": false,
      "stateMutability": "view",
      "type": "function"
    },
    {
      "constant": false,
      "inputs": [
        {
          "name": "_from",
          "type": "address"
        },
        {
          "name": "_to",
          "type": "address"
        },
        {
          "name": "_tokenId",
          "type": "uint256"
        }
      ],
      "name": "transferFrom",
      "outputs": [],
      "payable": true,
      "stateMutability": "payable",
      "type": "function"
    },
    {
      "constant": false,
      "inputs": [
        {
          "name": "_approved",
          "type": "address"
        },
        {
          "name": "_tokenId",
          "type": "uint256"
        }
      ],
      "name": "approve",
      "outputs": [],
      "payable": true,
      "stateMutability": "payable",
      "type": "function"
    },
    {
      "constant": false,
      "inputs": [
        {
          "name": "_zombieId",
          "type": "uint256"
        },
        {
          "name": "_price",
          "type": "uint256"
        }
      ],
      "name": "listZombieForSale",
      "outputs": [],
      "payable": false,
      "stateMutability": "nonpayable",
      "type": "function"
    },
    {
      "constant": true,
      "inputs": [],
      "name": "getZombiesOnSale",
      "outputs": [
        {
          "name": "",
          "type": "uint256[]"
        }
      ],
      "payable": false,
      "stateMutability": "view",
      "type": "function"
    },
    {
      "constant": false,
      "inputs": [
        {
          "name": "_zombieId",
          "type": "uint256"
        }
      ],
      "name": "buyZombie",
      "outputs": [],
      "payable": true,
      "stateMutability": "payable",
      "type": "function"
    },
    {
      "constant": false,
      "inputs": [
        {
          "name": "_tokenId",
          "type": "uint256"
        }
      ],
      "name": "cancelSale",
      "outputs": [],
      "payable": false,
      "stateMutability": "nonpayable",
      "type": "function"
    },
    {
      "constant": false,
      "inputs": [
        {
          "name": "_zombieId",
          "type": "uint256"
        }
      ],
      "name": "cancelZombieSale",
      "outputs": [],
      "payable": false,
      "stateMutability": "nonpayable",
      "type": "function"
    }
  ],
  "bytecode": "0x60806040526010600155600154600a0a6002556201518060035566038d7ea4c6800060085560006009556046600a55336000806101000a81548173ffffffffffffffffffffffffffffffffffffffff021916908373ffffffffffffffffffffffffffffffffffffffff1602179055506000809054906101000a900473ffffffffffffffffffffffffffffffffffffffff1673ffffffffffffffffffffffffffffffffffffffff16600073ffffffffffffffffffffffffffffffffffffffff167f8be0079c531659141344cd1fd0a4f28419497f9722a3daafe3b4186f6b6457e060405160405180910390a3613324806100f96000396000f30060806040526004361061018b576000357c0100000000000000000000000000000000000000000000000000000000900463ffffffff168063095ea7b3146101905780630ce90ec2146101d057806317a7f4cc146101f05780631d72d579146102275780632052465e1461025e57806323b872dd1461034f5780633ccfd60b146103af5780633de010f5146103c65780634412e1041461043a578063528b7b8f146104d25780635f323c731461053f5780635f4623f1146105845780635faf2880146105c7578063613a39ce146105fe5780636352211e1461066a5780636a0035b7146106d757806370a0823114610704578063715018a61461075b5780637bff0a0114610772578063854ee961146107db5780638da5cb5b1461081c5780638f32d59b14610873578063a266bbc9146108a2578063b92e2d74146108cf578063bd94b005146108ef578063bfef46c61461091c578063c39cbef114610985578063ccf670f8146109ca578063e149cb3c146109f7578063e1fa763814610a38578063f2fde38b14610a6f575b600080fd5b6101ce600480360381019080803573ffffffffffffffffffffffffffffffffffffffff16906020019092919080359060200190929190505050610ab2565b005b6101ee60048036038101908080359060200190929190505050610bd2565b005b3480156101fc57600080fd5b506102256004803603810190808035906020019092919080359060200190929190505050610c6d565b005b34801561023357600080fd5b5061025c6004803603810190808035906020019092919080359060200190929190505050610e16565b005b34801561026a57600080fd5b50610289600480360381019080803590602001909291905050506110c7565b60405180806020018781526020018663ffffffff1663ffffffff1681526020018563ffffffff1663ffffffff1681526020018461ffff1661ffff1681526020018361ffff1661ffff168152602001828103825288818151815260200191508051906020019080838360005b8381101561030f5780820151818401526020810190506102f4565b50505050905090810190601f16801561033c5780820380516001836020036101000a031916815260200191505b5097505050505050505060405180910390f35b6103ad600480360381019080803573ffffffffffffffffffffffffffffffffffffffff169060200190929190803573ffffffffffffffffffffffffffffffffffffffff169060200190929190803590602001909291905050506111e6565b005b3480156103bb57600080fd5b506103c46112cc565b005b3480156103d257600080fd5b506103f16004803603810190808035906020019092919050505061134c565b604051808381526020018273ffffffffffffffffffffffffffffffffffffffff1673ffffffffffffffffffffffffffffffffffffffff1681526020019250505060405180910390f35b34801561044657600080fd5b5061047b600480360381019080803573ffffffffffffffffffffffffffffffffffffffff169060200190929190505050611390565b6040518080602001828103825283818151815260200191508051906020019060200280838360005b838110156104be5780820151818401526020810190506104a3565b505050509050019250505060405180910390f35b3480156104de57600080fd5b506104fd600480360381019080803590602001909291905050506114c2565b604051808273ffffffffffffffffffffffffffffffffffffffff1673ffffffffffffffffffffffffffffffffffffffff16815260200191505060405180910390f35b34801561054b57600080fd5b5061056a600480360381019080803590602001909291905050506114f5565b604051808215151515815260200191505060405180910390f35b34801561059057600080fd5b506105c5600480360381019080803573ffffffffffffffffffffffffffffffffffffffff169060200190929190505050611515565b005b3480156105d357600080fd5b506105fc600480360381019080803590602001909291908035906020019092919050505061156c565b005b34801561060a57600080fd5b5061061361164e565b6040518080602001828103825283818151815260200191508051906020019060200280838360005b8381101561065657808201518184015260208101905061063b565b505050509050019250505060405180910390f35b34801561067657600080fd5b50610695600480360381019080803590602001909291905050506116a6565b604051808273ffffffffffffffffffffffffffffffffffffffff1673ffffffffffffffffffffffffffffffffffffffff16815260200191505060405180910390f35b3480156106e357600080fd5b50610702600480360381019080803590602001909291905050506116e3565b005b34801561071057600080fd5b50610745600480360381019080803573ffffffffffffffffffffffffffffffffffffffff169060200190929190505050611734565b6040518082815260200191505060405180910390f35b34801561076757600080fd5b5061077061177d565b005b34801561077e57600080fd5b506107d9600480360381019080803590602001908201803590602001908080601f016020809104026020016040519081016040528093929190818152602001838380828437820191505050505050919291929050505061184f565b005b3480156107e757600080fd5b50610806600480360381019080803590602001909291905050506118c8565b6040518082815260200191505060405180910390f35b34801561082857600080fd5b506108316118e0565b604051808273ffffffffffffffffffffffffffffffffffffffff1673ffffffffffffffffffffffffffffffffffffffff16815260200191505060405180910390f35b34801561087f57600080fd5b50610888611909565b604051808215151515815260200191505060405180910390f35b3480156108ae57600080fd5b506108cd60048036038101908080359060200190929190505050611960565b005b6108ed60048036038101908080359060200190929190505050611a68565b005b3480156108fb57600080fd5b5061091a60048036038101908080359060200190929190505050611ec0565b005b34801561092857600080fd5b50610983600480360381019080803590602001908201803590602001908080601f0160208091040260200160405190810160405280939291908181526020018383808284378201915050505050509192919290505050612050565b005b34801561099157600080fd5b506109c86004803603810190808035906020019092919080359060200190820180359060200191909192939192939050505061207c565b005b3480156109d657600080fd5b506109f56004803603810190808035906020019092919050505061216a565b005b348015610a0357600080fd5b50610a2260048036038101908080359060200190929190505050612187565b6040518082815260200191505060405180910390f35b348015610a4457600080fd5b50610a6d60048036038101908080359060200190929190803590602001909291905050506121aa565b005b348015610a7b57600080fd5b50610ab0600480360381019080803573ffffffffffffffffffffffffffffffffffffffff16906020019092919050505061243d565b005b806005600082815260200190815260200160002060009054906101000a900473ffffffffffffffffffffffffffffffffffffffff1673ffffffffffffffffffffffffffffffffffffffff163373ffffffffffffffffffffffffffffffffffffffff16141515610b2057600080fd5b82600b600084815260200190815260200160002060006101000a81548173ffffffffffffffffffffffffffffffffffffffff021916908373ffffffffffffffffffffffffffffffffffffffff160217905550818373ffffffffffffffffffffffffffffffffffffffff163373ffffffffffffffffffffffffffffffffffffffff167f8c5be1e5ebec7d5bd14f71427d1e84f3dd0314c0f7b2291e5b200ac8c7c3b92560405160405180910390a4505050565b60085434141515610be257600080fd5b610c2c6001600483815481101515610bf657fe5b906000526020600020906003020160020160009054906101000a900463ffffffff1663ffffffff1661245c90919063ffffffff16565b600482815481101515610c3b57fe5b906000526020600020906003020160020160006101000a81548163ffffffff021916908363ffffffff16021790555050565b6000600760009054906101000a900473ffffffffffffffffffffffffffffffffffffffff1673ffffffffffffffffffffffffffffffffffffffff1663e98b7f4d836040518263ffffffff167c01000000000000000000000000000000000000000000000000000000000281526004018082815260200191505061014060405180830381600087803b158015610d0157600080fd5b505af1158015610d15573d6000803e3d6000fd5b505050506040513d610140811015610d2c57600080fd5b810190808051906020019092919080519060200190929190805190602001909291908051906020019092919080519060200190929190805190602001909291908051906020019092919080519060200190929190805190602001909291908051906020019092919050505090919293949596979850909192939495969750909192939495965090919293949550909192939450909192935090919250909150905080915050610e1183826040805190810160405280600581526020017f6b69747479000000000000000000000000000000000000000000000000000000815250612486565b505050565b600081111515610e8e576040517f08c379a00000000000000000000000000000000000000000000000000000000081526004018080602001828103825260208152602001807f5072696365206d7573742062652067726561746572207468616e207a65726f2e81525060200191505060405180910390fd5b6005600083815260200190815260200160002060009054906101000a900473ffffffffffffffffffffffffffffffffffffffff1673ffffffffffffffffffffffffffffffffffffffff163373ffffffffffffffffffffffffffffffffffffffff16141515610f8a576040517f08c379a000000000000000000000000000000000000000000000000000000000815260040180806020018281038252602c8152602001807f4f6e6c7920746865206f776e65722063616e206c69737420746865207a6f6d6281526020017f696520666f722073616c652e000000000000000000000000000000000000000081525060400191505060405180910390fd5b6001600d600084815260200190815260200160002060006101000a81548160ff02191690831515021790555060408051908101604052808281526020013373ffffffffffffffffffffffffffffffffffffffff16815250600e60008481526020019081526020016000206000820151816000015560208201518160010160006101000a81548173ffffffffffffffffffffffffffffffffffffffff021916908373ffffffffffffffffffffffffffffffffffffffff160217905550905050600f829080600181540180825580915050906001820390600052602060002001600090919290919091505550813373ffffffffffffffffffffffffffffffffffffffff167fd01f8f7f1516ac7febf776d81add16e174aefebf48e13b62a89edd33c5e3916f836040518082815260200191505060405180910390a35050565b6004818154811015156110d657fe5b9060005260206000209060030201600091509050806000018054600181600116156101000203166002900480601f0160208091040260200160405190810160405280929190818152602001828054600181600116156101000203166002900480156111825780601f1061115757610100808354040283529160200191611182565b820191906000526020600020905b81548152906001019060200180831161116557829003601f168201915b5050505050908060010154908060020160009054906101000a900463ffffffff16908060020160049054906101000a900463ffffffff16908060020160089054906101000a900461ffff169080600201600a9054906101000a900461ffff16905086565b3373ffffffffffffffffffffffffffffffffffffffff166005600083815260200190815260200160002060009054906101000a900473ffffffffffffffffffffffffffffffffffffffff1673ffffffffffffffffffffffffffffffffffffffff1614806112b157503373ffffffffffffffffffffffffffffffffffffffff16600b600083815260200190815260200160002060009054906101000a900473ffffffffffffffffffffffffffffffffffffffff1673ffffffffffffffffffffffffffffffffffffffff16145b15156112bc57600080fd5b6112c7838383612733565b505050565b60006112d6611909565b15156112e157600080fd5b6112e96118e0565b90508073ffffffffffffffffffffffffffffffffffffffff166108fc3073ffffffffffffffffffffffffffffffffffffffff16319081150290604051600060405180830381858888f19350505050158015611348573d6000803e3d6000fd5b5050565b600e6020528060005260406000206000915090508060000154908060010160009054906101000a900473ffffffffffffffffffffffffffffffffffffffff16905082565b606080600080600660008673ffffffffffffffffffffffffffffffffffffffff1673ffffffffffffffffffffffffffffffffffffffff168152602001908152602001600020546040519080825280602002602001820160405280156114045781602001602082028038833980820191505090505b50925060009150600090505b6004805490508110156114b7578473ffffffffffffffffffffffffffffffffffffffff166005600083815260200190815260200160002060009054906101000a900473ffffffffffffffffffffffffffffffffffffffff1673ffffffffffffffffffffffffffffffffffffffff1614156114aa5780838381518110151561149357fe5b906020019060200201818152505081806001019250505b8080600101915050611410565b829350505050919050565b60056020528060005260406000206000915054906101000a900473ffffffffffffffffffffffffffffffffffffffff1681565b600d6020528060005260406000206000915054906101000a900460ff1681565b61151d611909565b151561152857600080fd5b80600760006101000a81548173ffffffffffffffffffffffffffffffffffffffff021916908373ffffffffffffffffffffffffffffffffffffffff16021790555050565b6005828160048281548110151561157f57fe5b906000526020600020906003020160020160009054906101000a900463ffffffff1663ffffffff16101515156115b457600080fd5b836005600082815260200190815260200160002060009054906101000a900473ffffffffffffffffffffffffffffffffffffffff1673ffffffffffffffffffffffffffffffffffffffff163373ffffffffffffffffffffffffffffffffffffffff1614151561162257600080fd5b8360048681548110151561163257fe5b9060005260206000209060030201600101819055505050505050565b6060600f80548060200260200160405190810160405280929190818152602001828054801561169c57602002820191906000526020600020905b815481526020019060010190808311611688575b5050505050905090565b60006005600083815260200190815260200160002060009054906101000a900473ffffffffffffffffffffffffffffffffffffffff169050919050565b600e60008281526020019081526020016000206000808201600090556001820160006101000a81549073ffffffffffffffffffffffffffffffffffffffff0219169055505061173181612911565b50565b6000600660008373ffffffffffffffffffffffffffffffffffffffff1673ffffffffffffffffffffffffffffffffffffffff168152602001908152602001600020549050919050565b611785611909565b151561179057600080fd5b600073ffffffffffffffffffffffffffffffffffffffff166000809054906101000a900473ffffffffffffffffffffffffffffffffffffffff1673ffffffffffffffffffffffffffffffffffffffff167f8be0079c531659141344cd1fd0a4f28419497f9722a3daafe3b4186f6b6457e060405160405180910390a360008060006101000a81548173ffffffffffffffffffffffffffffffffffffffff021916908373ffffffffffffffffffffffffffffffffffffffff160217905550565b600080600660003373ffffffffffffffffffffffffffffffffffffffff1673ffffffffffffffffffffffffffffffffffffffff1681526020019081526020016000205414151561189e57600080fd5b6118a7826129b0565b90506064818115156118b557fe5b06810390506118c48282612a9e565b5050565b600c6020528060005260406000206000915090505481565b60008060009054906101000a900473ffffffffffffffffffffffffffffffffffffffff16905090565b60008060009054906101000a900473ffffffffffffffffffffffffffffffffffffffff1673ffffffffffffffffffffffffffffffffffffffff163373ffffffffffffffffffffffffffffffffffffffff1614905090565b6005600082815260200190815260200160002060009054906101000a900473ffffffffffffffffffffffffffffffffffffffff1673ffffffffffffffffffffffffffffffffffffffff163373ffffffffffffffffffffffffffffffffffffffff16141515611a5c576040517f08c379a00000000000000000000000000000000000000000000000000000000081526004018080602001828103825260248152602001807f596f7520617265206e6f7420746865206f776e6572206f662074686973207a6f81526020017f6d6269650000000000000000000000000000000000000000000000000000000081525060400191505060405180910390fd5b611a6581612d71565b50565b611a70613177565b6000806000600e6000868152602001908152602001600020604080519081016040529081600082015481526020016001820160009054906101000a900473ffffffffffffffffffffffffffffffffffffffff1673ffffffffffffffffffffffffffffffffffffffff1673ffffffffffffffffffffffffffffffffffffffff1681525050935083602001519250339150611b526001600660008573ffffffffffffffffffffffffffffffffffffffff1673ffffffffffffffffffffffffffffffffffffffff16815260200190815260200160002054612ecc90919063ffffffff16565b600660008473ffffffffffffffffffffffffffffffffffffffff1673ffffffffffffffffffffffffffffffffffffffff16815260200190815260200160002081905550611be86001600660008673ffffffffffffffffffffffffffffffffffffffff1673ffffffffffffffffffffffffffffffffffffffff16815260200190815260200160002054612eea90919063ffffffff16565b600660008573ffffffffffffffffffffffffffffffffffffffff1673ffffffffffffffffffffffffffffffffffffffff16815260200190815260200160002081905550816005600087815260200190815260200160002060006101000a81548173ffffffffffffffffffffffffffffffffffffffff021916908373ffffffffffffffffffffffffffffffffffffffff160217905550848273ffffffffffffffffffffffffffffffffffffffff168473ffffffffffffffffffffffffffffffffffffffff167fddf252ad1be2c89b69c2b068fc378daa952ba7f163c4a11628f55a4df523b3ef60405160405180910390a48273ffffffffffffffffffffffffffffffffffffffff163460405180602001905060006040518083038185875af19250505090508273ffffffffffffffffffffffffffffffffffffffff168273ffffffffffffffffffffffffffffffffffffffff167fb33713aa0a1a4fdd31666c188c2bbcbd03fe208c88362034898252d94a5766c8348460405180838152602001821515151581526020019250505060405180910390a3801515611e18576040517f08c379a00000000000000000000000000000000000000000000000000000000081526004018080602001828103825260238152602001807f4661696c656420746f2073656e6420457468657220746f207468652073656c6c81526020017f65722e000000000000000000000000000000000000000000000000000000000081525060400191505060405180910390fd5b600e60008681526020019081526020016000206000808201600090556001820160006101000a81549073ffffffffffffffffffffffffffffffffffffffff02191690555050611e6685612911565b8173ffffffffffffffffffffffffffffffffffffffff16857f3d2bf9d9de111b6420a4298fa72715d70e737226bd8eb0d4ded09edf670a4d8086600001516040518082815260200191505060405180910390a35050505050565b806005600082815260200190815260200160002060009054906101000a900473ffffffffffffffffffffffffffffffffffffffff1673ffffffffffffffffffffffffffffffffffffffff163373ffffffffffffffffffffffffffffffffffffffff16141515611f2e57600080fd5b600d600083815260200190815260200160002060009054906101000a900460ff161515611fc3576040517f08c379a00000000000000000000000000000000000000000000000000000000081526004018080602001828103825260138152602001807f5a6f6d626965206e6f7420666f722073616c650000000000000000000000000081525060200191505060405180910390fd5b6000600d600084815260200190815260200160002060006101000a81548160ff0219169083151502179055506000600c600084815260200190815260200160002081905550813373ffffffffffffffffffffffffffffffffffffffff167fc9b961c43fe701b83ae14bfe2d7625ea85b27c33b4aae8d1fdf4b344d5ea1dbc60405160405180910390a35050565b600061205b826129b0565b905060648181151561206957fe5b06810390506120788282612a9e565b5050565b6002838160048281548110151561208f57fe5b906000526020600020906003020160020160009054906101000a900463ffffffff1663ffffffff16101515156120c457600080fd5b846005600082815260200190815260200160002060009054906101000a900473ffffffffffffffffffffffffffffffffffffffff1673ffffffffffffffffffffffffffffffffffffffff163373ffffffffffffffffffffffffffffffffffffffff1614151561213257600080fd5b848460048881548110151561214357fe5b906000526020600020906003020160000191906121619291906131a7565b50505050505050565b612172611909565b151561217d57600080fd5b8060088190555050565b600f8181548110151561219657fe5b906000526020600020016000915090505481565b6000806000846005600082815260200190815260200160002060009054906101000a900473ffffffffffffffffffffffffffffffffffffffff1673ffffffffffffffffffffffffffffffffffffffff163373ffffffffffffffffffffffffffffffffffffffff1614151561221d57600080fd5b60048681548110151561222c57fe5b9060005260206000209060030201935060048581548110151561224b57fe5b906000526020600020906003020192506122656064612f03565b9150600a548211151561239b5761229c60018560020160089054906101000a900461ffff1661ffff1661300690919063ffffffff16565b8460020160086101000a81548161ffff021916908361ffff1602179055506122e860018560020160009054906101000a900463ffffffff1663ffffffff1661245c90919063ffffffff16565b8460020160006101000a81548163ffffffff021916908363ffffffff160217905550612334600184600201600a9054906101000a900461ffff1661ffff1661300690919063ffffffff16565b83600201600a6101000a81548161ffff021916908361ffff1602179055506123968684600101546040805190810160405280600681526020017f7a6f6d6269650000000000000000000000000000000000000000000000000000815250612486565b612435565b6123c5600185600201600a9054906101000a900461ffff1661ffff1661300690919063ffffffff16565b84600201600a6101000a81548161ffff021916908361ffff16021790555061240d60018460020160089054906101000a900461ffff1661ffff1661300690919063ffffffff16565b8360020160086101000a81548161ffff021916908361ffff1602179055506124348461302c565b5b505050505050565b612445611909565b151561245057600080fd5b61245981613056565b50565b60008082840190508363ffffffff168163ffffffff161015151561247c57fe5b8091505092915050565b600080846005600082815260200190815260200160002060009054906101000a900473ffffffffffffffffffffffffffffffffffffffff1673ffffffffffffffffffffffffffffffffffffffff163373ffffffffffffffffffffffffffffffffffffffff161415156124f757600080fd5b60048681548110151561250657fe5b9060005260206000209060030201925061251f83613150565b151561252a57600080fd5b6002548581151561253757fe5b06945060028584600101540181151561254c57fe5b04915060405160200180807f6b6974747900000000000000000000000000000000000000000000000000000081525060050190506040516020818303038152906040526040518082805190602001908083835b6020831015156125c4578051825260208201915060208101905060208303925061259f565b6001836020036101000a038019825116818451168082178552505050505050905001915050604051809103902060001916846040516020018082805190602001908083835b60208310151561262e5780518252602082019150602081019050602083039250612609565b6001836020036101000a0380198251168184511680821785525050505050509050019150506040516020818303038152906040526040518082805190602001908083835b6020831015156126975780518252602082019150602081019050602083039250612672565b6001836020036101000a03801982511681845116808217855250505050505090500191505060405180910390206000191614156126e35760636064838115156126dc57fe5b0683030191505b6127226040805190810160405280600681526020017f4e6f4e616d65000000000000000000000000000000000000000000000000000081525083612a9e565b61272b8361302c565b505050505050565b6127866001600660008573ffffffffffffffffffffffffffffffffffffffff1673ffffffffffffffffffffffffffffffffffffffff16815260200190815260200160002054612ecc90919063ffffffff16565b600660008473ffffffffffffffffffffffffffffffffffffffff1673ffffffffffffffffffffffffffffffffffffffff1681526020019081526020016000208190555061281c6001600660003373ffffffffffffffffffffffffffffffffffffffff1673ffffffffffffffffffffffffffffffffffffffff16815260200190815260200160002054612eea90919063ffffffff16565b600660003373ffffffffffffffffffffffffffffffffffffffff1673ffffffffffffffffffffffffffffffffffffffff16815260200190815260200160002081905550816005600083815260200190815260200160002060006101000a81548173ffffffffffffffffffffffffffffffffffffffff021916908373ffffffffffffffffffffffffffffffffffffffff160217905550808273ffffffffffffffffffffffffffffffffffffffff168473ffffffffffffffffffffffffffffffffffffffff167fddf252ad1be2c89b69c2b068fc378daa952ba7f163c4a11628f55a4df523b3ef60405160405180910390a4505050565b60008090505b600f805490508110156129ac5781600f8281548110151561293457fe5b9060005260206000200154141561299f57600f6001600f805490500381548110151561295c57fe5b9060005260206000200154600f8281548110151561297657fe5b9060005260206000200181905550600f8054809190600190036129999190613227565b506129ac565b8080600101915050612917565b5050565b600080826040516020018082805190602001908083835b6020831015156129ec57805182526020820191506020810190506020830392506129c7565b6001836020036101000a0380198251168184511680821785525050505050509050019150506040516020818303038152906040526040518082805190602001908083835b602083101515612a555780518252602082019150602081019050602083039250612a30565b6001836020036101000a038019825116818451168082178552505050505050905001915050604051809103902060019004905060025481811515612a9557fe5b06915050919050565b60006001600460c060405190810160405280868152602001858152602001600163ffffffff168152602001600354420163ffffffff168152602001600061ffff168152602001600061ffff16815250908060018154018082558091505090600182039060005260206000209060030201600090919290919091506000820151816000019080519060200190612b34929190613253565b506020820151816001015560408201518160020160006101000a81548163ffffffff021916908363ffffffff16021790555060608201518160020160046101000a81548163ffffffff021916908363ffffffff16021790555060808201518160020160086101000a81548161ffff021916908361ffff16021790555060a082015181600201600a6101000a81548161ffff021916908361ffff1602179055505050039050336005600083815260200190815260200160002060006101000a81548173ffffffffffffffffffffffffffffffffffffffff021916908373ffffffffffffffffffffffffffffffffffffffff160217905550612c7d6001600660003373ffffffffffffffffffffffffffffffffffffffff1673ffffffffffffffffffffffffffffffffffffffff16815260200190815260200160002054612ecc90919063ffffffff16565b600660003373ffffffffffffffffffffffffffffffffffffffff1673ffffffffffffffffffffffffffffffffffffffff168152602001908152602001600020819055507f88f026aacbbecc90c18411df4b1185fd8d9be2470f1962f192bf84a27d0704b78184846040518084815260200180602001838152602001828103825284818151815260200191508051906020019080838360005b83811015612d30578082015181840152602081019050612d15565b50505050905090810190601f168015612d5d5780820380516001836020036101000a031916815260200191505b5094505050505060405180910390a1505050565b612df76001600660006005600086815260200190815260200160002060009054906101000a900473ffffffffffffffffffffffffffffffffffffffff1673ffffffffffffffffffffffffffffffffffffffff1673ffffffffffffffffffffffffffffffffffffffff16815260200190815260200160002054612eea90919063ffffffff16565b600660006005600085815260200190815260200160002060009054906101000a900473ffffffffffffffffffffffffffffffffffffffff1673ffffffffffffffffffffffffffffffffffffffff1673ffffffffffffffffffffffffffffffffffffffff168152602001908152602001600020819055506005600082815260200190815260200160002060006101000a81549073ffffffffffffffffffffffffffffffffffffffff02191690556000600482815481101515612eb457fe5b90600052602060002090600302016001018190555050565b6000808284019050838110151515612ee057fe5b8091505092915050565b6000828211151515612ef857fe5b818303905092915050565b6000612f1b6001600954612ecc90919063ffffffff16565b600981905550814233600954604051602001808481526020018373ffffffffffffffffffffffffffffffffffffffff1673ffffffffffffffffffffffffffffffffffffffff166c0100000000000000000000000002815260140182815260200193505050506040516020818303038152906040526040518082805190602001908083835b602083101515612fc45780518252602082019150602081019050602083039250612f9f565b6001836020036101000a038019825116818451168082178552505050505050905001915050604051809103902060019004811515612ffe57fe5b069050919050565b60008082840190508361ffff168161ffff161015151561302257fe5b8091505092915050565b60035442018160020160046101000a81548163ffffffff021916908363ffffffff16021790555050565b600073ffffffffffffffffffffffffffffffffffffffff168173ffffffffffffffffffffffffffffffffffffffff161415151561309257600080fd5b8073ffffffffffffffffffffffffffffffffffffffff166000809054906101000a900473ffffffffffffffffffffffffffffffffffffffff1673ffffffffffffffffffffffffffffffffffffffff167f8be0079c531659141344cd1fd0a4f28419497f9722a3daafe3b4186f6b6457e060405160405180910390a3806000806101000a81548173ffffffffffffffffffffffffffffffffffffffff021916908373ffffffffffffffffffffffffffffffffffffffff16021790555050565b6000428260020160049054906101000a900463ffffffff1663ffffffff1611159050919050565b604080519081016040528060008152602001600073ffffffffffffffffffffffffffffffffffffffff1681525090565b828054600181600116156101000203166002900490600052602060002090601f016020900481019282601f106131e857803560ff1916838001178555613216565b82800160010185558215613216579182015b828111156132155782358255916020019190600101906131fa565b5b50905061322391906132d3565b5090565b81548183558181111561324e5781836000526020600020918201910161324d91906132d3565b5b505050565b828054600181600116156101000203166002900490600052602060002090601f016020900481019282601f1061329457805160ff19168380011785556132c2565b828001600101855582156132c2579182015b828111156132c15782518255916020019190600101906132a6565b5b5090506132cf91906132d3565b5090565b6132f591905b808211156132f15760008160009055506001016132d9565b5090565b905600a165627a7a7230582028888d11b036cebfbe675f5ace17b86be22b52c6b5992d89c34b8231d043eb9f0029",
  "source": "pragma solidity ^0.4.25;\n\nimport \"./zombieattack.sol\";\nimport \"./erc721.sol\";\nimport \"./safemath.sol\";\n\ncontract ZombieOwnership is ZombieAttack, ERC721 {\n\n  using SafeMath for uint256;\n\n  mapping (uint => address) zombieApprovals;\n  mapping (uint => uint) public zombieSalePrice;\n  mapping (uint => bool) public isZombieForSale;\n  mapping(uint => ZombieSale) public zombiesForSale;\n\n  struct ZombieSale {\n    uint price;    \n    address seller;\n  }\n\n  uint[] public zombieSaleList;\n\n  event SaleListed(address indexed owner, uint indexed tokenId, uint price);\n  event SaleCompleted(address indexed buyer, address indexed seller, uint indexed tokenId, uint price);\n  event SaleCancelled(address indexed owner, uint indexed tokenId);\n  event ZombieSaleCancelled(uint indexed zombieId, address indexed seller);\n  event DebugLog(string message);\n\n  function balanceOf(address _owner) external view returns (uint256) {\n    return ownerZombieCount[_owner];\n  }\n\n  function ownerOf(uint256 _tokenId) external view returns (address) {\n    return zombieToOwner[_tokenId];\n  }\n\n  function _transfer(address _from, address _to, uint256 _tokenId) private {\n    ownerZombieCount[_to] = ownerZombieCount[_to].add(1);\n    ownerZombieCount[msg.sender] = ownerZombieCount[msg.sender].sub(1);\n    zombieToOwner[_tokenId] = _to;\n    emit Transfer(_from, _to, _tokenId);\n  }\n\n  function transferFrom(address _from, address _to, uint256 _tokenId) external payable {\n      require (zombieToOwner[_tokenId] == msg.sender || zombieApprovals[_tokenId] == msg.sender);\n      _transfer(_from, _to, _tokenId);\n  }\n\n  function approve(address _approved, uint256 _tokenId) external payable onlyOwnerOf(_tokenId) {\n      zombieApprovals[_tokenId] = _approved;\n      emit Approval(msg.sender, _approved, _tokenId);\n  }\n\n\n  function listZombieForSale(uint _zombieId, uint _price) external {\n    require(_price > 0, \"Price must be greater than zero.\");\n    require(msg.sender == zombieToOwner[_zombieId], \"Only the owner can list the zombie for sale.\");\n\n    // Mark the zombie as for sale\n    isZombieForSale[_zombieId] = true;\n    zombiesForSale[_zombieId] = ZombieSale({ price: _price, seller: msg.sender });\n\n    zombieSaleList.push(_zombieId); \n    emit SaleListed(msg.sender,_zombieId, _price);\n}\n\n  function getZombiesOnSale() external view returns (uint[] memory) {\n    return zombieSaleList;\n  }\n\n  event DebugTransfer(address indexed from, address indexed to, uint256 amount, bool success);\n  event ZombieSold(uint indexed zombieId, uint price, address indexed buyer);\n\n\n  function buyZombie(uint _zombieId) external payable {\n    ZombieSale memory sale = zombiesForSale[_zombieId];\n      \n    address seller = sale.seller;\n    address buyer = msg.sender;\n\n    ownerZombieCount[buyer] = ownerZombieCount[buyer].add(1);\n    ownerZombieCount[seller] = ownerZombieCount[seller].sub(1);\n    zombieToOwner[_zombieId] = buyer;\n    emit Transfer(seller, buyer, _zombieId);\n\n    (bool sent, ) = seller.call.value(msg.value)(\"\");\n    emit DebugTransfer(buyer, seller, msg.value, sent);\n    require(sent, \"Failed to send Ether to the seller.\");\n\n    delete zombiesForSale[_zombieId];\n      \n    _removeZombieFromSaleList(_zombieId);\n      \n    emit ZombieSold(_zombieId, sale.price, buyer);\n  }\n\n\n  function cancelSale(uint _tokenId) external onlyOwnerOf(_tokenId) {\n    require(isZombieForSale[_tokenId], \"Zombie not for sale\");\n    isZombieForSale[_tokenId] = false;\n    zombieSalePrice[_tokenId] = 0;\n\n    emit SaleCancelled(msg.sender, _tokenId);\n  }\n\n  function cancelZombieSale(uint _zombieId) external {\n      delete zombiesForSale[_zombieId];\n      _removeZombieFromSaleList(_zombieId);\n      \n  }\n\n  function _removeZombieFromSaleList(uint _zombieId) internal {\n      for (uint i = 0; i < zombieSaleList.length; i++) {\n          if (zombieSaleList[i] == _zombieId) {\n              zombieSaleList[i] = zombieSaleList[zombieSaleList.length - 1];\n              zombieSaleList.length--;\n              break;\n          }\n      }\n  }\n\n \n\n\n}\n",
  "sourcePath": "/Users/yashpatel/Documents/CryptoZombie/contracts/zombieownership.sol",
  "compiler": {
    "name": "solc",
    "version": "0.4.25+commit.59dbf8f1.Emscripten.clang"
  },
  "schemaVersion": "3.4.16",
  "updatedAt": "2025-10-17T00:47:52.745Z",
  "networkType": "ethereum",
  "devdoc": {
    "methods": {
      "isOwner()": {
        "return": "true if `msg.sender` is the owner of the contract."
      },
      "owner()": {
        "return": "the address of the owner."
      },
      "renounceOwnership()": {
        "details": "Allows the current owner to relinquish control of the contract."
      },
      "transferOwnership(address)": {
        "details": "Allows the current owner to transfer control of the contract to a newOwner.",
        "params": {
          "newOwner": "The address to transfer ownership to."
        }
      }
    }
  },
  "userdoc": {
    "methods": {
      "renounceOwnership()": {
        "notice": "Renouncing to ownership will leave the contract without an owner. It will not be possible to call the functions with the `onlyOwner` modifier anymore."
      }
    }
  }
}